{
  "contractName": "Demo",
  "abi": [
    {
      "inputs": [],
      "stateMutability": "nonpayable",
      "type": "constructor"
    },
    {
      "inputs": [],
      "name": "balance",
      "outputs": [
        {
          "internalType": "uint256",
          "name": "",
          "type": "uint256"
        }
      ],
      "stateMutability": "view",
      "type": "function",
      "constant": true
    },
    {
      "inputs": [],
      "name": "contribute",
      "outputs": [],
      "stateMutability": "payable",
      "type": "function",
      "payable": true
    }
  ],
  "bytecode": "0x608060405234801561001057600080fd5b5060008081905550610150806100276000396000f3fe6080604052600436106100295760003560e01c8063b69ef8a81461002e578063d7bb99ba14610059575b600080fd5b34801561003a57600080fd5b50610043610063565b604051610050919061009c565b60405180910390f35b610061610069565b005b60005481565b3460008082825461007a91906100e6565b92505081905550565b6000819050919050565b61009681610083565b82525050565b60006020820190506100b1600083018461008d565b92915050565b7f4e487b7100000000000000000000000000000000000000000000000000000000600052601160045260246000fd5b60006100f182610083565b91506100fc83610083565b9250828201905080821115610114576101136100b7565b5b9291505056fea2646970667358221220b6459fe94f402f9fc732bd20939f3ada02e047b8b9a97ffdc1ade09587a2517b64736f6c63430008110033",
  "immutableReferences": {},
  "source": "pragma solidity ^0.8.17;\r\n\r\ncontract Demo{\r\n    uint public balance;\r\n\r\n    //Initialize global variables\r\n    constructor() public{\r\n        balance = 0;\r\n    }\r\n\r\n    //The payable keyword allows this function to accept Ether\r\n    function contribute() public payable{\r\n        //msg.value is the value of Ether sent in a transaction\r\n        balance += msg.value;\r\n    }\r\n}",
  "sourcePath": "c:\\wamp64\\www\\MASTER\\MASTER2\\THYP_22-23_SmartContrat\\contracts\\Demo.sol",
  "compiler": {
    "name": "solc",
    "version": "0.8.17+commit.8df45f5f.Emscripten.clang"
  },
  "schemaVersion": "3.4.10",
  "updatedAt": "2022-11-13T22:29:31.020Z",
  "networkType": "ethereum",
  "devdoc": {
    "kind": "dev",
    "methods": {},
    "version": 1
  },
  "userdoc": {
    "kind": "user",
    "methods": {},
    "version": 1
  }
}