{
  "contractName": "Ticket",
  "abi": [
    {
      "inputs": [],
      "stateMutability": "nonpayable",
      "type": "constructor"
    },
    {
      "anonymous": false,
      "inputs": [
        {
          "indexed": false,
          "internalType": "uint256",
          "name": "ticketID",
          "type": "uint256"
        },
        {
          "indexed": false,
          "internalType": "string",
          "name": "nameTicket",
          "type": "string"
        },
        {
          "indexed": false,
          "internalType": "string",
          "name": "dateTicket",
          "type": "string"
        },
        {
          "indexed": false,
          "internalType": "uint256",
          "name": "referenceTicket",
          "type": "uint256"
        }
      ],
      "name": "newTicket",
      "type": "event"
    },
    {
      "inputs": [],
      "name": "message",
      "outputs": [
        {
          "internalType": "string",
          "name": "",
          "type": "string"
        }
      ],
      "stateMutability": "view",
      "type": "function",
      "constant": true
    },
    {
      "inputs": [],
      "name": "owner",
      "outputs": [
        {
          "internalType": "address",
          "name": "",
          "type": "address"
        }
      ],
      "stateMutability": "view",
      "type": "function",
      "constant": true
    },
    {
      "inputs": [
        {
          "internalType": "uint256",
          "name": "",
          "type": "uint256"
        }
      ],
      "name": "tickets",
      "outputs": [
        {
          "internalType": "string",
          "name": "nameTicket",
          "type": "string"
        },
        {
          "internalType": "string",
          "name": "dateTicket",
          "type": "string"
        },
        {
          "internalType": "uint256",
          "name": "referenceTicket",
          "type": "uint256"
        }
      ],
      "stateMutability": "view",
      "type": "function",
      "constant": true
    },
    {
      "inputs": [],
      "name": "getMessage",
      "outputs": [
        {
          "internalType": "string",
          "name": "",
          "type": "string"
        }
      ],
      "stateMutability": "view",
      "type": "function",
      "constant": true
    },
    {
      "inputs": [
        {
          "internalType": "string",
          "name": "_message",
          "type": "string"
        }
      ],
      "name": "setMessage",
      "outputs": [],
      "stateMutability": "nonpayable",
      "type": "function"
    },
    {
      "inputs": [],
      "name": "getOwner",
      "outputs": [
        {
          "internalType": "address",
          "name": "",
          "type": "address"
        }
      ],
      "stateMutability": "view",
      "type": "function",
      "constant": true
    },
    {
      "inputs": [
        {
          "internalType": "address",
          "name": "_owner",
          "type": "address"
        }
      ],
      "name": "setOwner",
      "outputs": [],
      "stateMutability": "nonpayable",
      "type": "function"
    },
    {
      "inputs": [
        {
          "internalType": "string",
          "name": "_nameTicket",
          "type": "string"
        },
        {
          "internalType": "string",
          "name": "_dateTicket",
          "type": "string"
        },
        {
          "internalType": "uint256",
          "name": "_referenceTicket",
          "type": "uint256"
        }
      ],
      "name": "createTicket",
      "outputs": [
        {
          "components": [
            {
              "internalType": "string",
              "name": "nameTicket",
              "type": "string"
            },
            {
              "internalType": "string",
              "name": "dateTicket",
              "type": "string"
            },
            {
              "internalType": "uint256",
              "name": "referenceTicket",
              "type": "uint256"
            }
          ],
          "internalType": "struct Ticket.Tickets",
          "name": "ticket",
          "type": "tuple"
        }
      ],
      "stateMutability": "nonpayable",
      "type": "function"
    },
    {
      "inputs": [
        {
          "internalType": "uint256",
          "name": "_id",
          "type": "uint256"
        },
        {
          "internalType": "string",
          "name": "_nameTicket",
          "type": "string"
        },
        {
          "internalType": "string",
          "name": "_dateTicket",
          "type": "string"
        },
        {
          "internalType": "uint256",
          "name": "_referenceTicket",
          "type": "uint256"
        }
      ],
      "name": "updateTicket",
      "outputs": [],
      "stateMutability": "nonpayable",
      "type": "function"
    },
    {
      "inputs": [],
      "name": "getAllTickets",
      "outputs": [
        {
          "components": [
            {
              "internalType": "string",
              "name": "nameTicket",
              "type": "string"
            },
            {
              "internalType": "string",
              "name": "dateTicket",
              "type": "string"
            },
            {
              "internalType": "uint256",
              "name": "referenceTicket",
              "type": "uint256"
            }
          ],
          "internalType": "struct Ticket.Tickets[]",
          "name": "",
          "type": "tuple[]"
        }
      ],
      "stateMutability": "view",
      "type": "function",
      "constant": true
    },
    {
      "inputs": [
        {
          "internalType": "uint256",
          "name": "_id",
          "type": "uint256"
        }
      ],
      "name": "getTicketByID",
      "outputs": [
        {
          "components": [
            {
              "internalType": "string",
              "name": "nameTicket",
              "type": "string"
            },
            {
              "internalType": "string",
              "name": "dateTicket",
              "type": "string"
            },
            {
              "internalType": "uint256",
              "name": "referenceTicket",
              "type": "uint256"
            }
          ],
          "internalType": "struct Ticket.Tickets",
          "name": "ticket",
          "type": "tuple"
        }
      ],
      "stateMutability": "view",
      "type": "function",
      "constant": true
    },
    {
      "inputs": [
        {
          "internalType": "string",
          "name": "_nameTicket",
          "type": "string"
        }
      ],
      "name": "getTicketByName",
      "outputs": [
        {
          "internalType": "string",
          "name": "nameTicket",
          "type": "string"
        },
        {
          "internalType": "string",
          "name": "dateTicket",
          "type": "string"
        },
        {
          "internalType": "uint256",
          "name": "referenceTicket",
          "type": "uint256"
        }
      ],
      "stateMutability": "view",
      "type": "function",
      "constant": true
    },
    {
      "inputs": [
        {
          "internalType": "uint256",
          "name": "_referenceTicket",
          "type": "uint256"
        }
      ],
      "name": "getTicketByReference",
      "outputs": [
        {
          "internalType": "string",
          "name": "nameTicket",
          "type": "string"
        },
        {
          "internalType": "string",
          "name": "dateTicket",
          "type": "string"
        },
        {
          "internalType": "uint256",
          "name": "referenceTicket",
          "type": "uint256"
        }
      ],
      "stateMutability": "view",
      "type": "function",
      "constant": true
    },
    {
      "inputs": [
        {
          "internalType": "string",
          "name": "_dateTicket",
          "type": "string"
        }
      ],
      "name": "getTicketByDate",
      "outputs": [
        {
          "internalType": "string",
          "name": "nameTicket",
          "type": "string"
        },
        {
          "internalType": "string",
          "name": "dateTicket",
          "type": "string"
        },
        {
          "internalType": "uint256",
          "name": "referenceTicket",
          "type": "uint256"
        }
      ],
      "stateMutability": "view",
      "type": "function",
      "constant": true
    },
    {
      "inputs": [],
      "name": "getTicketsCount",
      "outputs": [
        {
          "internalType": "uint256",
          "name": "",
          "type": "uint256"
        }
      ],
      "stateMutability": "view",
      "type": "function",
      "constant": true
    },
    {
      "inputs": [
        {
          "internalType": "uint256",
          "name": "_id",
          "type": "uint256"
        }
      ],
      "name": "deleteTicket",
      "outputs": [],
      "stateMutability": "nonpayable",
      "type": "function"
    },
    {
      "inputs": [],
      "name": "deleteAllTickets",
      "outputs": [],
      "stateMutability": "nonpayable",
      "type": "function"
    }
  ],
  "bytecode": "0x6080604052336000806101000a81548173ffffffffffffffffffffffffffffffffffffffff021916908373ffffffffffffffffffffffffffffffffffffffff1602179055503480156200005157600080fd5b506040518060400160405280600d81526020017f496e697420436f6e747261637400000000000000000000000000000000000000815250600190816200009891906200076a565b506200011a6040518060400160405280600a81526020017f4e6f6d5469636b657431000000000000000000000000000000000000000000008152506040518060400160405280600a81526020017f31332f31312f32303232000000000000000000000000000000000000000000008152506301348cb9620001b460201b60201c565b506200019c6040518060400160405280600a81526020017f4e6f6d5469636b657432000000000000000000000000000000000000000000008152506040518060400160405280600a81526020017f31302f31302f32303232000000000000000000000000000000000000000000008152506301348c52620001b460201b60201c565b50620001ad6200034360201b60201c565b5062000a7d565b620001be620004cf565b60008054906101000a900473ffffffffffffffffffffffffffffffffffffffff1673ffffffffffffffffffffffffffffffffffffffff163373ffffffffffffffffffffffffffffffffffffffff16146200024f576040517f08c379a00000000000000000000000000000000000000000000000000000000081526004016200024690620008d8565b60405180910390fd5b600260405180606001604052808681526020018581526020018481525090806001815401808255809150506001900390600052602060002090600302016000909190919091506000820151816000019081620002ac91906200076a565b506020820151816001019081620002c491906200076a565b5060408201518160020155505060006001600280549050620002e7919062000929565b90507f56159fce1db1c203efe2e504fdd0db5cec5e63a6be6ee437a5fdcc1f7ee05b4981868686604051620003209493929190620009f3565b60405180910390a162000339816200035060201b60201c565b9150509392505050565b6000600280549050905090565b6200035a620004cf565b6002828154811062000371576200037062000a4e565b5b90600052602060002090600302016040518060600160405290816000820180546200039c9062000559565b80601f0160208091040260200160405190810160405280929190818152602001828054620003ca9062000559565b80156200041b5780601f10620003ef576101008083540402835291602001916200041b565b820191906000526020600020905b815481529060010190602001808311620003fd57829003601f168201915b50505050508152602001600182018054620004369062000559565b80601f0160208091040260200160405190810160405280929190818152602001828054620004649062000559565b8015620004b55780601f106200048957610100808354040283529160200191620004b5565b820191906000526020600020905b8154815290600101906020018083116200049757829003601f168201915b505050505081526020016002820154815250509050919050565b60405180606001604052806060815260200160608152602001600081525090565b600081519050919050565b7f4e487b7100000000000000000000000000000000000000000000000000000000600052604160045260246000fd5b7f4e487b7100000000000000000000000000000000000000000000000000000000600052602260045260246000fd5b600060028204905060018216806200057257607f821691505b6020821081036200058857620005876200052a565b5b50919050565b60008190508160005260206000209050919050565b60006020601f8301049050919050565b600082821b905092915050565b600060088302620005f27fffffffffffffffffffffffffffffffffffffffffffffffffffffffffffffffff82620005b3565b620005fe8683620005b3565b95508019841693508086168417925050509392505050565b6000819050919050565b6000819050919050565b60006200064b620006456200063f8462000616565b62000620565b62000616565b9050919050565b6000819050919050565b62000667836200062a565b6200067f620006768262000652565b848454620005c0565b825550505050565b600090565b6200069662000687565b620006a38184846200065c565b505050565b5b81811015620006cb57620006bf6000826200068c565b600181019050620006a9565b5050565b601f8211156200071a57620006e4816200058e565b620006ef84620005a3565b81016020851015620006ff578190505b620007176200070e85620005a3565b830182620006a8565b50505b505050565b600082821c905092915050565b60006200073f600019846008026200071f565b1980831691505092915050565b60006200075a83836200072c565b9150826002028217905092915050565b6200077582620004f0565b67ffffffffffffffff811115620007915762000790620004fb565b5b6200079d825462000559565b620007aa828285620006cf565b600060209050601f831160018114620007e25760008415620007cd578287015190505b620007d985826200074c565b86555062000849565b601f198416620007f2866200058e565b60005b828110156200081c57848901518255600182019150602085019450602081019050620007f5565b868310156200083c578489015162000838601f8916826200072c565b8355505b6001600288020188555050505b505050505050565b600082825260208201905092915050565b7f546869732066756e6374696f6e206973207265737472696374656420746f207460008201527f686520636f6e74726163742773206f776e657200000000000000000000000000602082015250565b6000620008c060338362000851565b9150620008cd8262000862565b604082019050919050565b60006020820190508181036000830152620008f381620008b1565b9050919050565b7f4e487b7100000000000000000000000000000000000000000000000000000000600052601160045260246000fd5b6000620009368262000616565b9150620009438362000616565b92508282039050818111156200095e576200095d620008fa565b5b92915050565b6200096f8162000616565b82525050565b60005b838110156200099557808201518184015260208101905062000978565b60008484015250505050565b6000601f19601f8301169050919050565b6000620009bf82620004f0565b620009cb818562000851565b9350620009dd81856020860162000975565b620009e881620009a1565b840191505092915050565b600060808201905062000a0a600083018762000964565b818103602083015262000a1e8186620009b2565b9050818103604083015262000a348185620009b2565b905062000a45606083018462000964565b95945050505050565b7f4e487b7100000000000000000000000000000000000000000000000000000000600052603260045260246000fd5b6122c28062000a8d6000396000f3fe608060405234801561001057600080fd5b506004361061010b5760003560e01c80637b74520b116100a2578063a96d09f911610071578063a96d09f9146102ac578063c619cb91146102c8578063ce6d41de146102f8578063e21f37ce14610316578063ffaeb760146103345761010b565b80637b74520b1461020c578063893d20e81461023e5780638da5cb5b1461025c578063921594d91461027a5761010b565b8063306e4118116100de578063306e411814610198578063368b8772146101a257806350b44712146101be5780635a93fb2d146101f05761010b565b806303e96fe314610110578063080b2a861461012e57806313af40351461014c5780631af4d70214610168575b600080fd5b610118610366565b60405161012591906117c2565b60405180910390f35b6101366104f3565b60405161014391906117f3565b60405180910390f35b61016660048036038101906101619190611880565b610500565b005b610182600480360381019061017d9190611a0e565b6105d1565b60405161018f9190611af0565b60405180910390f35b6101a061074b565b005b6101bc60048036038101906101b79190611b12565b6107e9565b005b6101d860048036038101906101d39190611b5b565b61088a565b6040516101e793929190611bd2565b60405180910390f35b61020a60048036038101906102059190611b5b565b6109d4565b005b61022660048036038101906102219190611b12565b610ab2565b60405161023593929190611bd2565b60405180910390f35b610246610cf1565b6040516102539190611c26565b60405180910390f35b610264610d1a565b6040516102719190611c26565b60405180910390f35b610294600480360381019061028f9190611b5b565b610d3e565b6040516102a393929190611bd2565b60405180910390f35b6102c660048036038101906102c19190611c41565b610f32565b005b6102e260048036038101906102dd9190611b5b565b611056565b6040516102ef9190611af0565b60405180910390f35b6103006111c0565b60405161030d9190611ce0565b60405180910390f35b61031e611252565b60405161032b9190611ce0565b60405180910390f35b61034e60048036038101906103499190611b12565b6112e0565b60405161035d93929190611bd2565b60405180910390f35b60606002805480602002602001604051908101604052809291908181526020016000905b828210156104ea57838290600052602060002090600302016040518060600160405290816000820180546103bd90611d31565b80601f01602080910402602001604051908101604052809291908181526020018280546103e990611d31565b80156104365780601f1061040b57610100808354040283529160200191610436565b820191906000526020600020905b81548152906001019060200180831161041957829003601f168201915b5050505050815260200160018201805461044f90611d31565b80601f016020809104026020016040519081016040528092919081815260200182805461047b90611d31565b80156104c85780601f1061049d576101008083540402835291602001916104c8565b820191906000526020600020905b8154815290600101906020018083116104ab57829003601f168201915b505050505081526020016002820154815250508152602001906001019061038a565b50505050905090565b6000600280549050905090565b60008054906101000a900473ffffffffffffffffffffffffffffffffffffffff1673ffffffffffffffffffffffffffffffffffffffff163373ffffffffffffffffffffffffffffffffffffffff161461058e576040517f08c379a000000000000000000000000000000000000000000000000000000000815260040161058590611dd4565b60405180910390fd5b806000806101000a81548173ffffffffffffffffffffffffffffffffffffffff021916908373ffffffffffffffffffffffffffffffffffffffff16021790555050565b6105d961151f565b60008054906101000a900473ffffffffffffffffffffffffffffffffffffffff1673ffffffffffffffffffffffffffffffffffffffff163373ffffffffffffffffffffffffffffffffffffffff1614610667576040517f08c379a000000000000000000000000000000000000000000000000000000000815260040161065e90611dd4565b60405180910390fd5b6002604051806060016040528086815260200185815260200184815250908060018154018082558091505060019003906000526020600020906003020160009091909190915060008201518160000190816106c29190611fa0565b5060208201518160010190816106d89190611fa0565b50604082015181600201555050600060016002805490506106f991906120a1565b90507f56159fce1db1c203efe2e504fdd0db5cec5e63a6be6ee437a5fdcc1f7ee05b498186868660405161073094939291906120d5565b60405180910390a161074181611056565b9150509392505050565b60008054906101000a900473ffffffffffffffffffffffffffffffffffffffff1673ffffffffffffffffffffffffffffffffffffffff163373ffffffffffffffffffffffffffffffffffffffff16146107d9576040517f08c379a00000000000000000000000000000000000000000000000000000000081526004016107d090611dd4565b60405180910390fd5b600260006107e79190611540565b565b60008054906101000a900473ffffffffffffffffffffffffffffffffffffffff1673ffffffffffffffffffffffffffffffffffffffff163373ffffffffffffffffffffffffffffffffffffffff1614610877576040517f08c379a000000000000000000000000000000000000000000000000000000000815260040161086e90611dd4565b60405180910390fd5b80600190816108869190611fa0565b5050565b6002818154811061089a57600080fd5b90600052602060002090600302016000915090508060000180546108bd90611d31565b80601f01602080910402602001604051908101604052809291908181526020018280546108e990611d31565b80156109365780601f1061090b57610100808354040283529160200191610936565b820191906000526020600020905b81548152906001019060200180831161091957829003601f168201915b50505050509080600101805461094b90611d31565b80601f016020809104026020016040519081016040528092919081815260200182805461097790611d31565b80156109c45780601f10610999576101008083540402835291602001916109c4565b820191906000526020600020905b8154815290600101906020018083116109a757829003601f168201915b5050505050908060020154905083565b60008054906101000a900473ffffffffffffffffffffffffffffffffffffffff1673ffffffffffffffffffffffffffffffffffffffff163373ffffffffffffffffffffffffffffffffffffffff1614610a62576040517f08c379a0000000000000000000000000000000000000000000000000000000008152600401610a5990611dd4565b60405180910390fd5b60028181548110610a7657610a75612128565b5b906000526020600020906003020160008082016000610a959190611564565b600182016000610aa59190611564565b6002820160009055505050565b606080600080600090505b600280549050811015610ce85784604051602001610adb9190612193565b6040516020818303038152906040528051906020012060028281548110610b0557610b04612128565b5b9060005260206000209060030201600001604051602001610b26919061222d565b6040516020818303038152906040528051906020012003610cd55760028181548110610b5557610b54612128565b5b906000526020600020906003020160000160028281548110610b7a57610b79612128565b5b906000526020600020906003020160010160028381548110610b9f57610b9e612128565b5b906000526020600020906003020160020154828054610bbd90611d31565b80601f0160208091040260200160405190810160405280929190818152602001828054610be990611d31565b8015610c365780601f10610c0b57610100808354040283529160200191610c36565b820191906000526020600020905b815481529060010190602001808311610c1957829003601f168201915b50505050509250818054610c4990611d31565b80601f0160208091040260200160405190810160405280929190818152602001828054610c7590611d31565b8015610cc25780601f10610c9757610100808354040283529160200191610cc2565b820191906000526020600020905b815481529060010190602001808311610ca557829003601f168201915b5050505050915093509350935050610cea565b8080610ce090612244565b915050610abd565b505b9193909250565b60008060009054906101000a900473ffffffffffffffffffffffffffffffffffffffff16905090565b60008054906101000a900473ffffffffffffffffffffffffffffffffffffffff1681565b606080600080600090505b600280549050811015610f29578460028281548110610d6b57610d6a612128565b5b90600052602060002090600302016002015403610f165760028181548110610d9657610d95612128565b5b906000526020600020906003020160000160028281548110610dbb57610dba612128565b5b906000526020600020906003020160010160028381548110610de057610ddf612128565b5b906000526020600020906003020160020154828054610dfe90611d31565b80601f0160208091040260200160405190810160405280929190818152602001828054610e2a90611d31565b8015610e775780601f10610e4c57610100808354040283529160200191610e77565b820191906000526020600020905b815481529060010190602001808311610e5a57829003601f168201915b50505050509250818054610e8a90611d31565b80601f0160208091040260200160405190810160405280929190818152602001828054610eb690611d31565b8015610f035780601f10610ed857610100808354040283529160200191610f03565b820191906000526020600020905b815481529060010190602001808311610ee657829003601f168201915b5050505050915093509350935050610f2b565b8080610f2190612244565b915050610d49565b505b9193909250565b60008054906101000a900473ffffffffffffffffffffffffffffffffffffffff1673ffffffffffffffffffffffffffffffffffffffff163373ffffffffffffffffffffffffffffffffffffffff1614610fc0576040517f08c379a0000000000000000000000000000000000000000000000000000000008152600401610fb790611dd4565b60405180910390fd5b8260028581548110610fd557610fd4612128565b5b90600052602060002090600302016000019081610ff29190611fa0565b50816002858154811061100857611007612128565b5b906000526020600020906003020160010190816110259190611fa0565b50806002858154811061103b5761103a612128565b5b90600052602060002090600302016002018190555050505050565b61105e61151f565b6002828154811061107257611071612128565b5b906000526020600020906003020160405180606001604052908160008201805461109b90611d31565b80601f01602080910402602001604051908101604052809291908181526020018280546110c790611d31565b80156111145780601f106110e957610100808354040283529160200191611114565b820191906000526020600020905b8154815290600101906020018083116110f757829003601f168201915b5050505050815260200160018201805461112d90611d31565b80601f016020809104026020016040519081016040528092919081815260200182805461115990611d31565b80156111a65780601f1061117b576101008083540402835291602001916111a6565b820191906000526020600020905b81548152906001019060200180831161118957829003601f168201915b505050505081526020016002820154815250509050919050565b6060600180546111cf90611d31565b80601f01602080910402602001604051908101604052809291908181526020018280546111fb90611d31565b80156112485780601f1061121d57610100808354040283529160200191611248565b820191906000526020600020905b81548152906001019060200180831161122b57829003601f168201915b5050505050905090565b6001805461125f90611d31565b80601f016020809104026020016040519081016040528092919081815260200182805461128b90611d31565b80156112d85780601f106112ad576101008083540402835291602001916112d8565b820191906000526020600020905b8154815290600101906020018083116112bb57829003601f168201915b505050505081565b606080600080600090505b60028054905081101561151657846040516020016113099190612193565b604051602081830303815290604052805190602001206002828154811061133357611332612128565b5b9060005260206000209060030201600101604051602001611354919061222d565b6040516020818303038152906040528051906020012003611503576002818154811061138357611382612128565b5b9060005260206000209060030201600001600282815481106113a8576113a7612128565b5b9060005260206000209060030201600101600283815481106113cd576113cc612128565b5b9060005260206000209060030201600201548280546113eb90611d31565b80601f016020809104026020016040519081016040528092919081815260200182805461141790611d31565b80156114645780601f1061143957610100808354040283529160200191611464565b820191906000526020600020905b81548152906001019060200180831161144757829003601f168201915b5050505050925081805461147790611d31565b80601f01602080910402602001604051908101604052809291908181526020018280546114a390611d31565b80156114f05780601f106114c5576101008083540402835291602001916114f0565b820191906000526020600020905b8154815290600101906020018083116114d357829003601f168201915b5050505050915093509350935050611518565b808061150e90612244565b9150506112eb565b505b9193909250565b60405180606001604052806060815260200160608152602001600081525090565b508054600082556003029060005260206000209081019061156191906115a4565b50565b50805461157090611d31565b6000825580601f1061158257506115a1565b601f0160209004906000526020600020908101906115a091906115e3565b5b50565b5b808211156115df57600080820160006115be9190611564565b6001820160006115ce9190611564565b6002820160009055506003016115a5565b5090565b5b808211156115fc5760008160009055506001016115e4565b5090565b600081519050919050565b600082825260208201905092915050565b6000819050602082019050919050565b600081519050919050565b600082825260208201905092915050565b60005b8381101561166657808201518184015260208101905061164b565b60008484015250505050565b6000601f19601f8301169050919050565b600061168e8261162c565b6116988185611637565b93506116a8818560208601611648565b6116b181611672565b840191505092915050565b6000819050919050565b6116cf816116bc565b82525050565b600060608301600083015184820360008601526116f28282611683565b9150506020830151848203602086015261170c8282611683565b915050604083015161172160408601826116c6565b508091505092915050565b600061173883836116d5565b905092915050565b6000602082019050919050565b600061175882611600565b611762818561160b565b9350836020820285016117748561161c565b8060005b858110156117b05784840389528151611791858261172c565b945061179c83611740565b925060208a01995050600181019050611778565b50829750879550505050505092915050565b600060208201905081810360008301526117dc818461174d565b905092915050565b6117ed816116bc565b82525050565b600060208201905061180860008301846117e4565b92915050565b6000604051905090565b600080fd5b600080fd5b600073ffffffffffffffffffffffffffffffffffffffff82169050919050565b600061184d82611822565b9050919050565b61185d81611842565b811461186857600080fd5b50565b60008135905061187a81611854565b92915050565b60006020828403121561189657611895611818565b5b60006118a48482850161186b565b91505092915050565b600080fd5b600080fd5b7f4e487b7100000000000000000000000000000000000000000000000000000000600052604160045260246000fd5b6118ef82611672565b810181811067ffffffffffffffff8211171561190e5761190d6118b7565b5b80604052505050565b600061192161180e565b905061192d82826118e6565b919050565b600067ffffffffffffffff82111561194d5761194c6118b7565b5b61195682611672565b9050602081019050919050565b82818337600083830152505050565b600061198561198084611932565b611917565b9050828152602081018484840111156119a1576119a06118b2565b5b6119ac848285611963565b509392505050565b600082601f8301126119c9576119c86118ad565b5b81356119d9848260208601611972565b91505092915050565b6119eb816116bc565b81146119f657600080fd5b50565b600081359050611a08816119e2565b92915050565b600080600060608486031215611a2757611a26611818565b5b600084013567ffffffffffffffff811115611a4557611a4461181d565b5b611a51868287016119b4565b935050602084013567ffffffffffffffff811115611a7257611a7161181d565b5b611a7e868287016119b4565b9250506040611a8f868287016119f9565b9150509250925092565b60006060830160008301518482036000860152611ab68282611683565b91505060208301518482036020860152611ad08282611683565b9150506040830151611ae560408601826116c6565b508091505092915050565b60006020820190508181036000830152611b0a8184611a99565b905092915050565b600060208284031215611b2857611b27611818565b5b600082013567ffffffffffffffff811115611b4657611b4561181d565b5b611b52848285016119b4565b91505092915050565b600060208284031215611b7157611b70611818565b5b6000611b7f848285016119f9565b91505092915050565b600082825260208201905092915050565b6000611ba48261162c565b611bae8185611b88565b9350611bbe818560208601611648565b611bc781611672565b840191505092915050565b60006060820190508181036000830152611bec8186611b99565b90508181036020830152611c008185611b99565b9050611c0f60408301846117e4565b949350505050565b611c2081611842565b82525050565b6000602082019050611c3b6000830184611c17565b92915050565b60008060008060808587031215611c5b57611c5a611818565b5b6000611c69878288016119f9565b945050602085013567ffffffffffffffff811115611c8a57611c8961181d565b5b611c96878288016119b4565b935050604085013567ffffffffffffffff811115611cb757611cb661181d565b5b611cc3878288016119b4565b9250506060611cd4878288016119f9565b91505092959194509250565b60006020820190508181036000830152611cfa8184611b99565b905092915050565b7f4e487b7100000000000000000000000000000000000000000000000000000000600052602260045260246000fd5b60006002820490506001821680611d4957607f821691505b602082108103611d5c57611d5b611d02565b5b50919050565b7f546869732066756e6374696f6e206973207265737472696374656420746f207460008201527f686520636f6e74726163742773206f776e657200000000000000000000000000602082015250565b6000611dbe603383611b88565b9150611dc982611d62565b604082019050919050565b60006020820190508181036000830152611ded81611db1565b9050919050565b60008190508160005260206000209050919050565b60006020601f8301049050919050565b600082821b905092915050565b600060088302611e567fffffffffffffffffffffffffffffffffffffffffffffffffffffffffffffffff82611e19565b611e608683611e19565b95508019841693508086168417925050509392505050565b6000819050919050565b6000611e9d611e98611e93846116bc565b611e78565b6116bc565b9050919050565b6000819050919050565b611eb783611e82565b611ecb611ec382611ea4565b848454611e26565b825550505050565b600090565b611ee0611ed3565b611eeb818484611eae565b505050565b5b81811015611f0f57611f04600082611ed8565b600181019050611ef1565b5050565b601f821115611f5457611f2581611df4565b611f2e84611e09565b81016020851015611f3d578190505b611f51611f4985611e09565b830182611ef0565b50505b505050565b600082821c905092915050565b6000611f7760001984600802611f59565b1980831691505092915050565b6000611f908383611f66565b9150826002028217905092915050565b611fa98261162c565b67ffffffffffffffff811115611fc257611fc16118b7565b5b611fcc8254611d31565b611fd7828285611f13565b600060209050601f83116001811461200a5760008415611ff8578287015190505b6120028582611f84565b86555061206a565b601f19841661201886611df4565b60005b828110156120405784890151825560018201915060208501945060208101905061201b565b8683101561205d5784890151612059601f891682611f66565b8355505b6001600288020188555050505b505050505050565b7f4e487b7100000000000000000000000000000000000000000000000000000000600052601160045260246000fd5b60006120ac826116bc565b91506120b7836116bc565b92508282039050818111156120cf576120ce612072565b5b92915050565b60006080820190506120ea60008301876117e4565b81810360208301526120fc8186611b99565b905081810360408301526121108185611b99565b905061211f60608301846117e4565b95945050505050565b7f4e487b7100000000000000000000000000000000000000000000000000000000600052603260045260246000fd5b600081905092915050565b600061216d8261162c565b6121778185612157565b9350612187818560208601611648565b80840191505092915050565b600061219f8284612162565b915081905092915050565b600081546121b781611d31565b6121c18186612157565b945060018216600081146121dc57600181146121f157612224565b60ff1983168652811515820286019350612224565b6121fa85611df4565b60005b8381101561221c578154818901526001820191506020810190506121fd565b838801955050505b50505092915050565b600061223982846121aa565b915081905092915050565b600061224f826116bc565b91507fffffffffffffffffffffffffffffffffffffffffffffffffffffffffffffffff820361228157612280612072565b5b60018201905091905056fea26469706673582212208cfc42b10cceb51992372337dcf4f131fd95a3816c2a8dd6e2e149d29a69e74a64736f6c63430008110033",
  "immutableReferences": {},
  "source": "//SPDX-License-Identifier: MIT\r\npragma solidity ^0.8.17;\r\n\r\ncontract Ticket{\r\n    event newTicket(uint ticketID, string nameTicket, string dateTicket, uint referenceTicket);\r\n\r\n    address public owner = msg.sender;\r\n    string public message;\r\n\r\n    Tickets[] public tickets;\r\n\r\n\r\n    struct Tickets{\r\n        string nameTicket;\r\n        string dateTicket;\r\n        uint referenceTicket;\r\n    }\r\n\r\n\r\n    constructor(){\r\n        message = \"Init Contract\";\r\n        createTicket(\"NomTicket1\", \"13/11/2022\", 20221113);\r\n        createTicket(\"NomTicket2\", \"10/10/2022\", 20221010);\r\n        getTicketsCount();\r\n\r\n        //getTicketByID(1);\r\n        //updateTicket(1, \"NomTicketUpdate\", \"01/01/2022\", 123456);\r\n        //deleteTicket(1);\r\n    }\r\n\r\n    modifier ownerOnly(){\r\n        require(msg.sender == owner, \"This function is restricted to the contract's owner\");\r\n        _;\r\n    }\r\n\r\n    function getMessage() public view returns(string memory){\r\n        return message;\r\n    }\r\n\r\n    function setMessage(string memory _message) public ownerOnly{\r\n        message = _message;\r\n    }\r\n\r\n    function getOwner() public view returns(address){\r\n        return owner;\r\n    }\r\n\r\n    function setOwner(address _owner) public ownerOnly{\r\n        owner = _owner;\r\n    }\r\n\r\n    //only contract owner can run\r\n    function createTicket(string memory _nameTicket, string memory _dateTicket, uint _referenceTicket) public ownerOnly returns(Tickets memory ticket){\r\n        tickets.push(Tickets(_nameTicket, _dateTicket, _referenceTicket));\r\n        uint _id = tickets.length - 1;\r\n        emit newTicket(_id, _nameTicket, _dateTicket, _referenceTicket);\r\n        return getTicketByID(_id);\r\n    }\r\n\r\n    function updateTicket(uint _id, string memory _nameTicket, string memory _dateTicket, uint _referenceTicket) public ownerOnly{\r\n        tickets[_id].nameTicket = _nameTicket;\r\n        tickets[_id].dateTicket = _dateTicket;\r\n        tickets[_id].referenceTicket = _referenceTicket;\r\n    }\r\n\r\n    function getAllTickets() public view returns(Tickets[] memory){\r\n        return tickets;\r\n    }\r\n\r\n    function getTicketByID(uint _id) public view returns(Tickets memory ticket){\r\n        return tickets[_id];\r\n    }\r\n\r\n    function getTicketByName(string memory _nameTicket) public view returns(string memory nameTicket, string memory dateTicket, uint referenceTicket){\r\n        for(uint i = 0; i < tickets.length; i++){\r\n            if(keccak256(abi.encodePacked(tickets[i].nameTicket)) == keccak256(abi.encodePacked(_nameTicket))){\r\n                return (tickets[i].nameTicket, tickets[i].dateTicket, tickets[i].referenceTicket);\r\n            }\r\n        }\r\n    }\r\n\r\n    function getTicketByReference(uint _referenceTicket) public view returns(string memory nameTicket, string memory dateTicket, uint referenceTicket){\r\n        for(uint i = 0; i < tickets.length; i++){\r\n            if(tickets[i].referenceTicket == _referenceTicket){\r\n                return (tickets[i].nameTicket, tickets[i].dateTicket, tickets[i].referenceTicket);\r\n            }\r\n        }\r\n    }\r\n\r\n    function getTicketByDate(string memory _dateTicket) public view returns(string memory nameTicket, string memory dateTicket, uint referenceTicket){\r\n        for(uint i = 0; i < tickets.length; i++){\r\n            if(keccak256(abi.encodePacked(tickets[i].dateTicket)) == keccak256(abi.encodePacked(_dateTicket))){\r\n                return (tickets[i].nameTicket, tickets[i].dateTicket, tickets[i].referenceTicket);\r\n            }\r\n        }\r\n    }\r\n\r\n    function getTicketsCount() public view returns(uint){\r\n        return tickets.length;\r\n    }\r\n\r\n    function deleteTicket(uint _id) public ownerOnly{\r\n        delete tickets[_id];\r\n    }\r\n\r\n    function deleteAllTickets() public ownerOnly{\r\n        delete tickets;\r\n    }\r\n\r\n    \r\n    \r\n    \r\n}",
  "sourcePath": "c:\\wamp64\\www\\MASTER\\MASTER2\\THYP_22-23_SmartContrat\\contracts\\Ticket.sol",
  "compiler": {
    "name": "solc",
    "version": "0.8.17+commit.8df45f5f.Emscripten.clang"
  },
  "schemaVersion": "3.4.10",
  "updatedAt": "2022-11-20T17:59:03.203Z",
  "networkType": "ethereum",
  "devdoc": {
    "kind": "dev",
    "methods": {},
    "version": 1
  },
  "userdoc": {
    "kind": "user",
    "methods": {},
    "version": 1
  }
}