{
  "contractName": "Ticket",
  "abi": [
    {
      "inputs": [],
      "stateMutability": "nonpayable",
      "type": "constructor"
    },
    {
      "anonymous": false,
      "inputs": [
        {
          "indexed": false,
          "internalType": "uint256",
          "name": "ticketID",
          "type": "uint256"
        },
        {
          "indexed": false,
          "internalType": "string",
          "name": "nameTicket",
          "type": "string"
        },
        {
          "indexed": false,
          "internalType": "string",
          "name": "dateTicket",
          "type": "string"
        },
        {
          "indexed": false,
          "internalType": "uint256",
          "name": "referenceTicket",
          "type": "uint256"
        }
      ],
      "name": "newTicket",
      "type": "event"
    },
    {
      "inputs": [],
      "name": "message",
      "outputs": [
        {
          "internalType": "string",
          "name": "",
          "type": "string"
        }
      ],
      "stateMutability": "view",
      "type": "function",
      "constant": true
    },
    {
      "inputs": [],
      "name": "owner",
      "outputs": [
        {
          "internalType": "address",
          "name": "",
          "type": "address"
        }
      ],
      "stateMutability": "view",
      "type": "function",
      "constant": true
    },
    {
      "inputs": [
        {
          "internalType": "uint256",
          "name": "",
          "type": "uint256"
        }
      ],
      "name": "tickets",
      "outputs": [
        {
          "internalType": "string",
          "name": "nameTicket",
          "type": "string"
        },
        {
          "internalType": "string",
          "name": "dateTicket",
          "type": "string"
        },
        {
          "internalType": "uint256",
          "name": "referenceTicket",
          "type": "uint256"
        }
      ],
      "stateMutability": "view",
      "type": "function",
      "constant": true
    },
    {
      "inputs": [
        {
          "internalType": "string",
          "name": "_nameTicket",
          "type": "string"
        },
        {
          "internalType": "string",
          "name": "_dateTicket",
          "type": "string"
        },
        {
          "internalType": "uint256",
          "name": "_referenceTicket",
          "type": "uint256"
        }
      ],
      "name": "_createTicket",
      "outputs": [],
      "stateMutability": "nonpayable",
      "type": "function"
    },
    {
      "inputs": [
        {
          "internalType": "uint256",
          "name": "_id",
          "type": "uint256"
        }
      ],
      "name": "_getTicketByID",
      "outputs": [
        {
          "components": [
            {
              "internalType": "string",
              "name": "nameTicket",
              "type": "string"
            },
            {
              "internalType": "string",
              "name": "dateTicket",
              "type": "string"
            },
            {
              "internalType": "uint256",
              "name": "referenceTicket",
              "type": "uint256"
            }
          ],
          "internalType": "struct Ticket.Ticket",
          "name": "ticket",
          "type": "tuple"
        }
      ],
      "stateMutability": "nonpayable",
      "type": "function"
    },
    {
      "inputs": [],
      "name": "getTicketsCount",
      "outputs": [
        {
          "internalType": "uint256",
          "name": "count",
          "type": "uint256"
        }
      ],
      "stateMutability": "view",
      "type": "function",
      "constant": true
    }
  ],
  "bytecode": "0x6080604052336000806101000a81548173ffffffffffffffffffffffffffffffffffffffff021916908373ffffffffffffffffffffffffffffffffffffffff1602179055503480156200005157600080fd5b506040518060400160405280600d81526020017f496e697420436f6e74726163740000000000000000000000000000000000000081525060019081620000989190620007ed565b506200011a6040518060400160405280600a81526020017f4e6f6d5469636b657431000000000000000000000000000000000000000000008152506040518060400160405280600a81526020017f31332f31312f32303232000000000000000000000000000000000000000000008152506301348cb9620001c560201b60201c565b6200019b6040518060400160405280600a81526020017f4e6f6d5469636b657432000000000000000000000000000000000000000000008152506040518060400160405280600a81526020017f31302f31302f32303232000000000000000000000000000000000000000000008152506301348c52620001c560201b60201c565b620001ab6200033560201b60201c565b50620001be60016200034260201b60201c565b5062000b00565b60008054906101000a900473ffffffffffffffffffffffffffffffffffffffff1673ffffffffffffffffffffffffffffffffffffffff163373ffffffffffffffffffffffffffffffffffffffff161462000256576040517f08c379a00000000000000000000000000000000000000000000000000000000081526004016200024d906200095b565b60405180910390fd5b600260405180606001604052808581526020018481526020018381525090806001815401808255809150506001900390600052602060002090600302016000909190919091506000820151816000019081620002b39190620007ed565b506020820151816001019081620002cb9190620007ed565b5060408201518160020155505060006001600280549050620002ee9190620009ac565b90507f56159fce1db1c203efe2e504fdd0db5cec5e63a6be6ee437a5fdcc1f7ee05b498185858560405162000327949392919062000a76565b60405180910390a150505050565b6000600280549050905090565b6200034c62000552565b60008054906101000a900473ffffffffffffffffffffffffffffffffffffffff1673ffffffffffffffffffffffffffffffffffffffff163373ffffffffffffffffffffffffffffffffffffffff1614620003dd576040517f08c379a0000000000000000000000000000000000000000000000000000000008152600401620003d4906200095b565b60405180910390fd5b60028281548110620003f457620003f362000ad1565b5b90600052602060002090600302016040518060600160405290816000820180546200041f90620005dc565b80601f01602080910402602001604051908101604052809291908181526020018280546200044d90620005dc565b80156200049e5780601f1062000472576101008083540402835291602001916200049e565b820191906000526020600020905b8154815290600101906020018083116200048057829003601f168201915b50505050508152602001600182018054620004b990620005dc565b80601f0160208091040260200160405190810160405280929190818152602001828054620004e790620005dc565b8015620005385780601f106200050c5761010080835404028352916020019162000538565b820191906000526020600020905b8154815290600101906020018083116200051a57829003601f168201915b505050505081526020016002820154815250509050919050565b60405180606001604052806060815260200160608152602001600081525090565b600081519050919050565b7f4e487b7100000000000000000000000000000000000000000000000000000000600052604160045260246000fd5b7f4e487b7100000000000000000000000000000000000000000000000000000000600052602260045260246000fd5b60006002820490506001821680620005f557607f821691505b6020821081036200060b576200060a620005ad565b5b50919050565b60008190508160005260206000209050919050565b60006020601f8301049050919050565b600082821b905092915050565b600060088302620006757fffffffffffffffffffffffffffffffffffffffffffffffffffffffffffffffff8262000636565b62000681868362000636565b95508019841693508086168417925050509392505050565b6000819050919050565b6000819050919050565b6000620006ce620006c8620006c28462000699565b620006a3565b62000699565b9050919050565b6000819050919050565b620006ea83620006ad565b62000702620006f982620006d5565b84845462000643565b825550505050565b600090565b620007196200070a565b62000726818484620006df565b505050565b5b818110156200074e57620007426000826200070f565b6001810190506200072c565b5050565b601f8211156200079d57620007678162000611565b620007728462000626565b8101602085101562000782578190505b6200079a620007918562000626565b8301826200072b565b50505b505050565b600082821c905092915050565b6000620007c260001984600802620007a2565b1980831691505092915050565b6000620007dd8383620007af565b9150826002028217905092915050565b620007f88262000573565b67ffffffffffffffff8111156200081457620008136200057e565b5b620008208254620005dc565b6200082d82828562000752565b600060209050601f83116001811462000865576000841562000850578287015190505b6200085c8582620007cf565b865550620008cc565b601f198416620008758662000611565b60005b828110156200089f5784890151825560018201915060208501945060208101905062000878565b86831015620008bf5784890151620008bb601f891682620007af565b8355505b6001600288020188555050505b505050505050565b600082825260208201905092915050565b7f546869732066756e6374696f6e206973207265737472696374656420746f207460008201527f686520636f6e74726163742773206f776e657200000000000000000000000000602082015250565b600062000943603383620008d4565b91506200095082620008e5565b604082019050919050565b60006020820190508181036000830152620009768162000934565b9050919050565b7f4e487b7100000000000000000000000000000000000000000000000000000000600052601160045260246000fd5b6000620009b98262000699565b9150620009c68362000699565b9250828203905081811115620009e157620009e06200097d565b5b92915050565b620009f28162000699565b82525050565b60005b8381101562000a18578082015181840152602081019050620009fb565b60008484015250505050565b6000601f19601f8301169050919050565b600062000a428262000573565b62000a4e8185620008d4565b935062000a60818560208601620009f8565b62000a6b8162000a24565b840191505092915050565b600060808201905062000a8d6000830187620009e7565b818103602083015262000aa1818662000a35565b9050818103604083015262000ab7818562000a35565b905062000ac86060830184620009e7565b95945050505050565b7f4e487b7100000000000000000000000000000000000000000000000000000000600052603260045260246000fd5b610fd78062000b106000396000f3fe608060405234801561001057600080fd5b50600436106100625760003560e01c8063080b2a861461006757806350b44712146100855780638da5cb5b146100b75780638eb4635b146100d5578063c7488c11146100f1578063e21f37ce14610121575b600080fd5b61006f61013f565b60405161007c91906106df565b60405180910390f35b61009f600480360381019061009a919061073a565b61014c565b6040516100ae939291906107f7565b60405180910390f35b6100bf610296565b6040516100cc919061087d565b60405180910390f35b6100ef60048036038101906100ea91906109cd565b6102ba565b005b61010b6004803603810190610106919061073a565b61041f565b6040516101189190610b08565b60405180910390f35b610129610617565b6040516101369190610b2a565b60405180910390f35b6000600280549050905090565b6002818154811061015c57600080fd5b906000526020600020906003020160009150905080600001805461017f90610b7b565b80601f01602080910402602001604051908101604052809291908181526020018280546101ab90610b7b565b80156101f85780601f106101cd576101008083540402835291602001916101f8565b820191906000526020600020905b8154815290600101906020018083116101db57829003601f168201915b50505050509080600101805461020d90610b7b565b80601f016020809104026020016040519081016040528092919081815260200182805461023990610b7b565b80156102865780601f1061025b57610100808354040283529160200191610286565b820191906000526020600020905b81548152906001019060200180831161026957829003601f168201915b5050505050908060020154905083565b60008054906101000a900473ffffffffffffffffffffffffffffffffffffffff1681565b60008054906101000a900473ffffffffffffffffffffffffffffffffffffffff1673ffffffffffffffffffffffffffffffffffffffff163373ffffffffffffffffffffffffffffffffffffffff1614610348576040517f08c379a000000000000000000000000000000000000000000000000000000000815260040161033f90610c1e565b60405180910390fd5b6002604051806060016040528085815260200184815260200183815250908060018154018082558091505060019003906000526020600020906003020160009091909190915060008201518160000190816103a39190610dea565b5060208201518160010190816103b99190610dea565b50604082015181600201555050600060016002805490506103da9190610eeb565b90507f56159fce1db1c203efe2e504fdd0db5cec5e63a6be6ee437a5fdcc1f7ee05b49818585856040516104119493929190610f1f565b60405180910390a150505050565b6104276106a5565b60008054906101000a900473ffffffffffffffffffffffffffffffffffffffff1673ffffffffffffffffffffffffffffffffffffffff163373ffffffffffffffffffffffffffffffffffffffff16146104b5576040517f08c379a00000000000000000000000000000000000000000000000000000000081526004016104ac90610c1e565b60405180910390fd5b600282815481106104c9576104c8610f72565b5b90600052602060002090600302016040518060600160405290816000820180546104f290610b7b565b80601f016020809104026020016040519081016040528092919081815260200182805461051e90610b7b565b801561056b5780601f106105405761010080835404028352916020019161056b565b820191906000526020600020905b81548152906001019060200180831161054e57829003601f168201915b5050505050815260200160018201805461058490610b7b565b80601f01602080910402602001604051908101604052809291908181526020018280546105b090610b7b565b80156105fd5780601f106105d2576101008083540402835291602001916105fd565b820191906000526020600020905b8154815290600101906020018083116105e057829003601f168201915b505050505081526020016002820154815250509050919050565b6001805461062490610b7b565b80601f016020809104026020016040519081016040528092919081815260200182805461065090610b7b565b801561069d5780601f106106725761010080835404028352916020019161069d565b820191906000526020600020905b81548152906001019060200180831161068057829003601f168201915b505050505081565b60405180606001604052806060815260200160608152602001600081525090565b6000819050919050565b6106d9816106c6565b82525050565b60006020820190506106f460008301846106d0565b92915050565b6000604051905090565b600080fd5b600080fd5b610717816106c6565b811461072257600080fd5b50565b6000813590506107348161070e565b92915050565b6000602082840312156107505761074f610704565b5b600061075e84828501610725565b91505092915050565b600081519050919050565b600082825260208201905092915050565b60005b838110156107a1578082015181840152602081019050610786565b60008484015250505050565b6000601f19601f8301169050919050565b60006107c982610767565b6107d38185610772565b93506107e3818560208601610783565b6107ec816107ad565b840191505092915050565b6000606082019050818103600083015261081181866107be565b9050818103602083015261082581856107be565b905061083460408301846106d0565b949350505050565b600073ffffffffffffffffffffffffffffffffffffffff82169050919050565b60006108678261083c565b9050919050565b6108778161085c565b82525050565b6000602082019050610892600083018461086e565b92915050565b600080fd5b600080fd5b7f4e487b7100000000000000000000000000000000000000000000000000000000600052604160045260246000fd5b6108da826107ad565b810181811067ffffffffffffffff821117156108f9576108f86108a2565b5b80604052505050565b600061090c6106fa565b905061091882826108d1565b919050565b600067ffffffffffffffff821115610938576109376108a2565b5b610941826107ad565b9050602081019050919050565b82818337600083830152505050565b600061097061096b8461091d565b610902565b90508281526020810184848401111561098c5761098b61089d565b5b61099784828561094e565b509392505050565b600082601f8301126109b4576109b3610898565b5b81356109c484826020860161095d565b91505092915050565b6000806000606084860312156109e6576109e5610704565b5b600084013567ffffffffffffffff811115610a0457610a03610709565b5b610a108682870161099f565b935050602084013567ffffffffffffffff811115610a3157610a30610709565b5b610a3d8682870161099f565b9250506040610a4e86828701610725565b9150509250925092565b600082825260208201905092915050565b6000610a7482610767565b610a7e8185610a58565b9350610a8e818560208601610783565b610a97816107ad565b840191505092915050565b610aab816106c6565b82525050565b60006060830160008301518482036000860152610ace8282610a69565b91505060208301518482036020860152610ae88282610a69565b9150506040830151610afd6040860182610aa2565b508091505092915050565b60006020820190508181036000830152610b228184610ab1565b905092915050565b60006020820190508181036000830152610b4481846107be565b905092915050565b7f4e487b7100000000000000000000000000000000000000000000000000000000600052602260045260246000fd5b60006002820490506001821680610b9357607f821691505b602082108103610ba657610ba5610b4c565b5b50919050565b7f546869732066756e6374696f6e206973207265737472696374656420746f207460008201527f686520636f6e74726163742773206f776e657200000000000000000000000000602082015250565b6000610c08603383610772565b9150610c1382610bac565b604082019050919050565b60006020820190508181036000830152610c3781610bfb565b9050919050565b60008190508160005260206000209050919050565b60006020601f8301049050919050565b600082821b905092915050565b600060088302610ca07fffffffffffffffffffffffffffffffffffffffffffffffffffffffffffffffff82610c63565b610caa8683610c63565b95508019841693508086168417925050509392505050565b6000819050919050565b6000610ce7610ce2610cdd846106c6565b610cc2565b6106c6565b9050919050565b6000819050919050565b610d0183610ccc565b610d15610d0d82610cee565b848454610c70565b825550505050565b600090565b610d2a610d1d565b610d35818484610cf8565b505050565b5b81811015610d5957610d4e600082610d22565b600181019050610d3b565b5050565b601f821115610d9e57610d6f81610c3e565b610d7884610c53565b81016020851015610d87578190505b610d9b610d9385610c53565b830182610d3a565b50505b505050565b600082821c905092915050565b6000610dc160001984600802610da3565b1980831691505092915050565b6000610dda8383610db0565b9150826002028217905092915050565b610df382610767565b67ffffffffffffffff811115610e0c57610e0b6108a2565b5b610e168254610b7b565b610e21828285610d5d565b600060209050601f831160018114610e545760008415610e42578287015190505b610e4c8582610dce565b865550610eb4565b601f198416610e6286610c3e565b60005b82811015610e8a57848901518255600182019150602085019450602081019050610e65565b86831015610ea75784890151610ea3601f891682610db0565b8355505b6001600288020188555050505b505050505050565b7f4e487b7100000000000000000000000000000000000000000000000000000000600052601160045260246000fd5b6000610ef6826106c6565b9150610f01836106c6565b9250828203905081811115610f1957610f18610ebc565b5b92915050565b6000608082019050610f3460008301876106d0565b8181036020830152610f4681866107be565b90508181036040830152610f5a81856107be565b9050610f6960608301846106d0565b95945050505050565b7f4e487b7100000000000000000000000000000000000000000000000000000000600052603260045260246000fdfea264697066735822122025a881c64515065373e610296baa29afa73e80a98ce7cbee0445f359184ad5fe64736f6c63430008110033",
  "immutableReferences": {},
  "source": "pragma solidity ^0.8.17;\r\n\r\ncontract Ticket{\r\n    event newTicket(uint ticketID, string nameTicket, string dateTicket, uint referenceTicket);\r\n\r\n    address public owner = msg.sender;\r\n    string public message;\r\n\r\n    struct Ticket{\r\n        string nameTicket;\r\n        string dateTicket;\r\n        uint referenceTicket;\r\n    }\r\n\r\n    Ticket[] public tickets;\r\n\r\n    constructor() public{\r\n        message = \"Init Contract\";\r\n        _createTicket(\"NomTicket1\", \"13/11/2022\", 20221113);\r\n        _createTicket(\"NomTicket2\", \"10/10/2022\", 20221010);\r\n        getTicketsCount();\r\n\r\n        _getTicketByID(1);\r\n    }\r\n\r\n    modifier ownerOnly(){\r\n        require(msg.sender == owner, \"This function is restricted to the contract's owner\");\r\n        _;\r\n    }\r\n\r\n    //only contract owner can run\r\n    function _createTicket(string memory _nameTicket, string memory _dateTicket, uint _referenceTicket) public ownerOnly{\r\n        tickets.push(Ticket(_nameTicket, _dateTicket, _referenceTicket));\r\n        uint _id = tickets.length - 1;\r\n        emit newTicket(_id, _nameTicket, _dateTicket, _referenceTicket);\r\n    }\r\n    \r\n    function _getTicketByID(uint _id) public ownerOnly returns(Ticket memory ticket){\r\n        return tickets[_id];\r\n    }\r\n/*\r\n    function retrieveTickets() public ownerOnly{\r\n        for(uint i=0; i<getTicketsCount(); i++){\r\n            tickets[i];\r\n        }\r\n    }\r\n*/\r\n    function getTicketsCount() public view returns(uint count){\r\n        return tickets.length;\r\n    }\r\n}",
  "sourcePath": "c:\\wamp64\\www\\MASTER\\MASTER2\\THYP_22-23_SmartContrat\\contracts\\Ticket.sol",
  "compiler": {
    "name": "solc",
    "version": "0.8.17+commit.8df45f5f.Emscripten.clang"
  },
  "schemaVersion": "3.4.10",
  "updatedAt": "2022-11-13T22:29:33.723Z",
  "networkType": "ethereum",
  "devdoc": {
    "kind": "dev",
    "methods": {},
    "version": 1
  },
  "userdoc": {
    "kind": "user",
    "methods": {},
    "version": 1
  }
}